:020000040800F2
:10000000D0040020D5000008FB000008FD00000817
:1000100000000000000000000000000000000000E0
:10002000000000000000000000000000FF000008C9
:1000300000000000000000000101000803010008AA
:100040000501000805010008050100080501000878
:100050000501000805010008050100080501000868
:100060000501000805010008050100080501000858
:100070000501000805010008050100080501000848
:100080000501000800000000000000000501000854
:1000900000000000050100086D14000805010008BB
:1000A00000000000050100080501000825150008F2
:1000B0000501000800000000050100080501000816
:1000C0000348854600F0D2FD004800477918000833
:1000D000D00400200C4880F308880C480168090E01
:1000E0000B4A914205D10B480B4901600B480C4962
:1000F00001600C4880470C480047FEE7FEE7FEE73A
:10010000FEE7FEE7FEE70000D00400200400000048
:100110001F00000018100240010000000000014014
:1001200000000000F9130008C100000830B50B46BC
:10013000014600202022012409E00D46D5409D42C1
:1001400005D31D469540491B254695404019154647
:10015000521E002DF1DC30BD70B50024254600286C
:1001600001DA01244042002901DA01254942FFF762
:10017000DDFFAC4200D04042002C00D0494270BDAF
:100180000FB400B58DB009900B9010A9002000911C
:10019000C0430A9000200C9006480690064807903D
:1001A0006A4609A80F9900F02DFC0DB008BC04B0F8
:1001B00018470000250A0008450A0008FFB5002777
:1001C000FF4383B000205C6801909E681D46A969CA
:1001D0007F1C049888470090296A88470028F6D138
:1001E0000098401C0CD0032040028443002E19DDEF
:1001F000600614D500982B2809D02D280FD103E0D4
:100200000020C04307B0F0BD012080020443A9696B
:100210007F1C04988847761E0090002E02DD00980F
:10022000302803D00598002825D035E00120400271
:100230000443A969761E7F1C049888470090002E0D
:1002400003DD782805D0582803D00598002810D061
:1002500022E00598002801D010281DD1012040027D
:100260008443A969761E7F1C04988847009010205B
:1002700002E0082000E00A2005900DE0012149027B
:100280000C43059A0199761E514308180190A969FB
:100290007F1C049888470090002E05DD0599009882
:1002A00000F09AFB0028E9DAE96904988847A0057C
:1002B00002D40120C043A5E7E00722D1600611D592
:1002C0006005019800D5404229680A1D2A60096826
:1002D000220501D5087014E0220701D5088010E03E
:1002E00008600EE02868011D29600068210502D51C
:1002F0000199017005E02107019901D5018000E015
:10030000016038467EE7FFB5002083B0009050685A
:10031000019091691446002697680498884705461D
:100320000C990698084305D009E0A169761C049849
:1003300088470546216A284688470028F5D1681C69
:1003400003D00198C00704D017E00020C04307B0D5
:10035000F0BD2068011D2160006800900DE001984B
:10036000C00704D1009805700098401C0090A16956
:10037000761C7F1E049888470546002F1CDD681CEC
:100380001AD0069800280FD0E817C00E4019411166
:100390008A0006994009511840012A1A096801206B
:1003A00090400142DBD107E00C980028D7D1216AA8
:1003B000284688470028D2D0E169049888470C98DD
:1003C000002807D1002E05DD0198C00702D1009852
:1003D00000210170A068B84204DD0C98002804D008
:1003E000002F02D00120C043B1E73046AFE7000044
:1003F000FFB5087889B01546FF2805D0491C2D287F
:1004000004D00022002407E000240BE00122F9E7D9
:100410000A235C430419491C0878FF28F8D1002AF4
:1004200000D06442002004902A7801462D2A01D091
:100430002B2A0FD16D1C2D2A02D00022049209E034
:100440000122FBE700260A2233466D1C00F076FAF3
:10045000381871412F78FF2FF4D10C9AA218069208
:1004600002460A4304D0FF23069A9133DA4205DAA2
:10047000002109980A4606C00DB0F0BD0024B74A15
:10048000B54D2646079200F0C7FB029006980391EF
:10049000002801DA474200E0074639050020AF4A4C
:1004A000001C51410191009012E0F80707D022464C
:1004B0002B463046079900F093F9064607912246ED
:1004C0002B461046194600F08BF904460D467F1066
:1004D000002FEAD10698019B0028009A0399029800
:1004E00006DA00F021FB3246079B00F01DFB05E019
:1004F00000F076F93246079B00F072F9049A002A60
:1005000002D00122D2075140099A03C2B4E7FFB5D5
:1005100091B0002009900025ED432E209E685C6874
:100520001F460190B9696D1C129888470090396A7E
:1005300088470028F6D10098401C0AD00D20C00141
:100540008443002E12DD00982B2809D02D280DD1D0
:1005500003E00020C04315B0F0BD01208002044339
:10056000B9696D1C12988847761E009003A9600532
:1005700001D52D2000E02B206A461073491C0CA8E1
:100580000F9102900AE0B9696D1C1298884700909B
:100590000120400204431398761E0560002E02DD00
:1005A00000983028EFD001990098884246D18020E9
:1005B000044308E00998401E0990012040020443CA
:1005C0001399681C0860B9696D1C761E12988847DB
:1005D00000903028EED031E00199884205D1200604
:1005E00003D480200443761E1EE0009801F093F8A7
:1005F000002826D001204002044307A90F980331A8
:10060000761E88420BD200980F99303808700F98E8
:10061000401C0F90200607D50998401E03E02006D5
:1006200002D40998401C0990A00502D51399681CB2
:100630000860B9696D1C129888470090002ECBDCC9
:1006400059E0002E57DD0098652801D0452852D189
:10065000A00550D5032000028443B9696D1C761EA5
:10066000129888470090002E0CDD2B2804D02D28EE
:1006700008D1FF2001300443B9696D1C12988847E6
:10068000761E0090E00501D52D2100E02B21029877
:1006900001700298401C0290019025E00120400268
:1006A00004430EA902980131761E88420ED20098AA
:1006B000029930380006000E087003D102990198A3
:1006C00081420AD90298401C029006E0E00501D55B
:1006D000234801E0224840420990B9696D1C1298F4
:1006E0008847009013980560002E04DD009801F003
:1006F00012F80028D2D1F969129888470F99FF2083
:100700000870029903AA087000200A900B900CA9A7
:100710000AA8099BFFF76CFEA00502D40120C04384
:1007200019E72420044209D0E00713D138680B9A56
:100730000A99031D3B60006806C00BE00B990A98FC
:1007400000F078FA0146E00704D13868021D3A60EB
:10075000006801602846FEE6000014400000F03FFB
:10076000F1D8FFFF024670B54A40D30FDB074000C7
:100770002DD04A002AD0010E140E000212020919CF
:10078000400A520A8418E50104465443000A120A3A
:100790002E045043A4194219200CC543AA18120C68
:1007A0000125AD03521C521912047F39240400D0D4
:1007B000521C104301D44000491EC2B20C06C009AD
:1007C0002018401C4008802A02D003E0002070BDA1
:1007D00040084000002900DA0020184370BD0000E6
:1007E000F0B51FB488B00B990998002448400999C6
:1007F000C00F490049080991C0070B9900904900B2
:1008000049080B9109990898A64608431CD00B99F2
:100810000A98084318D0099801244000420D480066
:10082000410D099824050003000B204309900B9803
:100830000003000B20430B9050181C494018002265
:1008400001901446104605E0002001460DB0F0BDB1
:10085000032801DA034600E003239C46C11A0AAECE
:100860000AE05F0008ADED5B4F00F75B7D430027BA
:10087000AA187C41491C5B1E6145F2DD410004ABB6
:100880005A522104120C0A43240C401C0828DFDBB6
:10089000019802900099704601910090059B049A7E
:1008A0000799069800F0EDF8D0E700000DFCFFFF77
:1008B000410040020122400AD205090E80187F291A
:1008C00001DA00207047962903DC9622511AC840AD
:1008D00070479639884070474A0009030123090B85
:1008E0001B051943094B10B5520D9A4201DA00203D
:1008F00010BD064B34339A4203DC9A1A00F05BF8C1
:1009000010BD03495118884010BD0000FF030000CE
:10091000CDFBFFFFC20FD207400040080BD0C10D36
:100920000723DB01C91840020905400A1143C20828
:10093000400711437047002001467047F0B51FB4CF
:1009400086B000200090019002900698069980B22F
:1009500004900798090C0204001411430790002723
:10096000089D099806913E463C4603900398A9B21B
:100970000204000C039004982D0C154348430021F9
:10098000224600F085F9C719714110340E46402CFB
:10099000ECDB3846029A00F07BF9009A019B801844
:1009A0000090594102980191103002904028CCDB10
:1009B00000980BB0F0BD10B5202A04DB0846203AA1
:1009C000D040002110BD0B46D340D0402024A21AB5
:1009D00091400843194610BD3A2800D230382023F0
:1009E00002469A43412A01D310463738884201D340
:1009F0000020C0437047000002681378511801605E
:100A00001846704710B5D16004495161044911621C
:100A100000211161114600F053F910BDF9090008D9
:100A2000B10C00084268002A08D001680B78491C04
:100A3000002B03D0521E06C0184670470121C1602A
:100A4000881E70474268002A0BD0C3680168002BDB
:100A500007D183688B4204D0491E521C06C0002077
:100A600070470020C043704710B5002B08DA0024FF
:100A7000401C614192185B411A4301D1400840007B
:100A800010BDF0B51FB482B005460C0003D0084677
:100A900000F0D2FD02E000F0CFFD203002460090D1
:100AA0002146284600F0F4F8049B059A04460F46B8
:100AB00018431143084314D0184610431BD0009824
:100AC00040210A1A18460599FFF775FF05460E469C
:100AD000009A0599049800F0DBF8084305D001203E
:100AE00004E02046394607B0F0BD0020C117054399
:100AF0000E432C43374300990E986305401A79053D
:100B0000E40A00220C43FD0A0A3002D50020014607
:100B1000E9E70105101969410C9C0D9D0019694117
:100B2000FFF7A2FFDFE70000F0B50C465C4085B0A0
:100B3000E40FE40703944C0000266408590094462F
:100B4000490802460296224321D062460A431ED03B
:100B50006200570D4A000E032303550D012402467F
:100B60002C492405781B1B0B360B401823432643C6
:100B7000614600901C46501AB44103D30098401CB3
:100B8000009002E0921800985B41002803DA0020F0
:100B9000014605B0F0BD0020012109050746864643
:100BA00011E064461D46141BB54106D36546521B31
:100BB000B341744607430C43A646CD074008490895
:100BC000284392185B4105460D43EAD1104618436D
:100BD00013D06046194650407140084306D0604625
:100BE000101AB34106D20122002306E0002201239D
:100BF000DB0702E00122D24353100098744601053E
:100C0000381C6141029C039D00196941FFF72CFFCC
:100C1000BFE70000FD0300000EB5054A0292002266
:100C2000009213460192FFF72CFF03B000BD0000B5
:100C300033040000CB0FDB07490010B5490802461A
:100C40000A4307D00A0D07240903E401090B121B0C
:100C5000002A01DC002010BDC900440F0C43C10074
:100C6000E018D205801800F0C7F910BD064C012528
:100C7000064E05E0E36807CC2B430C3C9847103444
:100C8000B442F7D3FFF720FA502000087020000884
:100C900010B5202A04DB0146203A9140002010BD07
:100CA000914020239C1A0346E3401943904010BD15
:100CB00010B50F21C0B2490200F0E0F910BD0000EC
:100CC000F3B58DB000200A9001200B900026084655
:100CD0000C300C4609906269012109989047051E65
:100CE0002ED0252D2DD0216A8847002818D0626982
:100CF000012109989047216A88470028F7D1411EB1
:100D000062690998904700E0761CA1690D988847B0
:100D1000216A88470028F7D1E1690D988847DAE70A
:100D2000A1690D9888470746A84201D1761CD2E7F1
:100D3000E1690D9888477F1C02D10A98002877D076
:100D400049E1002762693D463946099890472A28BB
:100D50000CD16269012109989047012506E00A211A
:100D60004F433F18303FEBD4102005436269012107
:100D700009989047014630390A2903D29B498F428E
:100D8000DEDCECE7E90600D4994F6C280AD04C2849
:100D900010D0682824D06A282ED074280CD07A2845
:100DA0000AD00DE062690121099890476C2823D090
:100DB00004211CE020200543626901210998904725
:100DC000A760656065284FD026DC582839D01ADC2A
:100DD000452849D012DC252834D04128B0D143E041
:100DE0006269012109989047682802D008210D43C3
:100DF000E6E70120C002DEE70220DCE7462833D028
:100E000047282CD130E05B2870D061282CD0632893
:100E10006CD0642823D161E06F284FD009DC6628AC
:100E200022D0672820D0692826D06E2817D12EE03E
:100E3000CDE070284DD073286FD075284ED078281B
:100E40000DD154E0A1690D9888470546252800D1A9
:100E50006CE7E1690D9888476D1C00D16DE7BAE039
:100E60000A224CE00A2252E0012023466A46C0438F
:100E70000D99FFF74CFBA3E0284640210843606032
:100E8000A807234601D5002239E000223FE0E80709
:100E900000D020E72068011D21600068290501D5E8
:100EA000067018E7290701D5068014E7A90703D5BE
:100EB000F117066041600EE706600CE72846402106
:100EC00008436060A807234601D5082217E00822DE
:100ED0001DE0484928460840606016E02846402149
:100EE00008436060A8072346BCD5B9E715E028464B
:100EF000402108436060A80707D52346102201203F
:100F0000C0430D99C046C0465AE023461022012036
:100F1000C0430D99FFF752F952E000210C910B46A6
:100F20000091632802D05B2807D043E0E80601D493
:100F30000120A060012000903CE062690121099835
:100F400090475E2805D101200C90014662690998FE
:100F500090472169002906D10B4601AA8F00491C40
:100F6000D3510829FADB002835D0216900290ED198
:100F7000C117C90E09184A11930001AA9A18490904
:100F80004901411A012013688840034313606269D4
:100F90000121099890475D28E5D10C98002808D0D8
:100FA000002001AB81005A58401CD2435A500828F7
:100FB000F8DB01AB01202246C0430D99FFF7A3F9EE
:100FC00000280ADA401C06D10B98002803D0002024
:100FD000C0430FB0F0BD0A98FBE7E90702D10A99B8
:100FE000491C0A91361800200B9074E6CCCCCC0C2E
:100FF000FFFFFF7FF1F7FFFF002904DA401C4900E3
:1010000001D140084000704770B40024050C05D1A0
:101010001024000402D1002921D01124050E01D191
:1010200000020834050F01D10001241D850F01D1F4
:101030008000A41C002801DB4000641C002908D0AB
:1010400020252E1B0D46F540A14000D0012129434B
:10105000084301061B1B000ADB1D02D5002070BCE3
:101060007047DB05181880180029F8DA401C490081
:10107000F5D170BC40084000704700007F2801D9BE
:10108000002207E0054B42089A5CC00700D1120914
:101090001207120F012090400840704710200008EE
:1010A000F0B591B009A90AAA21480BAB04930692A6
:1010B0000791059008380CA90DAA0EAB0093019278
:1010C000029103900FAB10AA1AA12548FFF758F818
:1010D00024490C98FFF746FB0446FFF7E9FB144947
:1010E000103948601F490B98FFF73CFB0446FFF797
:1010F000DFFB0F491039C8600A98FFF70BFC044664
:10110000194A1A4BFFF76CFB0646FFF7E5FB084947
:10111000103948820998FFF7CBFB054910398882BE
:10112000109888700F9808700E98487011B0F0BD34
:1011300020000020244750524D432C253264253294
:10114000642532642E2532642C412C25662C2563BF
:101150002C25662C25632C25662C256600000000B6
:101160007A0000200050C3476F1283C0CAA1FD3F20
:1011700000BF0A4880690121C90308400028F8D14E
:1011800006484068064908430449486000BF0348D0
:101190008069C007C00F0028F9D070470054004094
:1011A0007820FF0000BF0D488069C007C00F0028ED
:1011B000F9D00A484068012189030843074948607B
:1011C00000BF06488069202108400028F9D0034864
:1011D000C06908430149C8617047000000540040DD
:1011E00000BF04498969C907C90F0029F9D001491D
:1011F000886270470054004030B505460B46FFF743
:10120000B7FF4020FFF7ECFF00221DE02846203802
:101210008100401880180F490C5C002B04D0E1437A
:10122000C8B2FFF7DDFF02E02046FFF7D9FF042A2E
:1012300008D1002B03D0FF20FFF7D2FF02E00020EF
:10124000FFF7CEFF501CC2B2052ADFDBFFF7AAFF73
:1012500030BD0000B01B000810B5002405E00021DF
:1012600003A000F0BCF8601CC4B20A2CF7DB10BD70
:10127000202020202020202020202020202020206E
:101280000000000070B505460E4600240AE028194B
:10129000C1B2002000F014F8002104A000F09FF873
:1012A000601CC4B2B442F2DB70BD000020202020DC
:1012B00020202020202020202020202000000000AE
:1012C00010B502460B46FFF753FF0020FFF788FFDB
:1012D0003020FFF785FF114606246143491C802416
:1012E0002143C8B2FFF77CFF402119430846FFF7AE
:1012F00077FFFFF757FF10BD00B50920C006806AD1
:10130000022108430921C90688620A2000F00AFA6E
:101310000920C0068069022108430921C9068861A5
:101320000A2000F0FFF9FFF723FF0020FFF758FF26
:101330003120FFF755FF1420FFF752FF0620FFF77B
:101340004FFF3020FFF74CFF1120FFF749FF05202A
:10135000FFF746FF3120FFF743FF9A20FFF740FFDA
:101360000C20FFF73DFF3020FFF73AFF0C20FFF77E
:1013700037FF4020FFF734FF8020FFF731FFFFF7F2
:1013800011FF00BDFEB505460E460124002700BF33
:101390000A2D0EDB0A212846FEF7DEFECFB23846C4
:1013A0003030694608550A212846FEF7D5FE054625
:1013B00004E028463030694608550025601CC4B258
:1013C000002DE5D1601EC4B200BF6946085D3146FC
:1013D000FFF712FF601EC4B2002CF6D1FEBD30B57F
:1013E00004460D4604E020782946FFF705FF641CFB
:1013F00020780028F7D130BD194800680121084342
:101400001749086008464068164908401449486072
:1014100008460068144908401149086008460068F9
:101420000121890488430E490860084640683F212D
:10143000090488430A4948600846C06A0009000157
:10144000C8620846006BFF21D43188430449086311
:101450000846406B400840004863002088607047A1
:10146000001002400CB8FF08FFFFF6FE00B5074869
:101470000069C007C00F002807D000F009F8034832
:101480000069400840000149086100BD0048014072
:101490001D480088002804D01B480088401E1A49B7
:1014A00008801A480088002809D1FF20F530174924
:1014B000088017484069012148401549486115488E
:1014C0000088002806D17D20C00012490880012034
:1014D0001149087011480078002805D1C8200F492B
:1014E000087001200E49087008480088401E07490E
:1014F000088008480088401E064908800748007890
:10150000401E0649087070470600002008000020B1
:10151000000400480A0000200E0000200C000020FB
:101520000D0000203D48C06920210840002872D0ED
:101530003A48203080883A493A4A12788854084616
:1015400038490978405C242805D035483549097860
:10155000405C212808D1324832490978405C304942
:10156000087000202F4908702E480078401C2D4933
:10157000087008460078401E2949085C0D2843D1B0
:10158000084628490978405C0A283DD12448C0789B
:10159000522825D12248407C412821D100202249CF
:1015A00008700CE01E4820490978405C1F491E4A1B
:1015B000127888541C480078401C1B4908701A484F
:1015C00000785228EEDB0120194908701548007890
:1015D000401E14490870084600781649087013E048
:1015E0000020104908701049087009E000210C48DB
:1015F0000D4A127881540C480078401C0A49087042
:10160000094800785228F1DB06480078522802DDAC
:101610000020044908700148C06970470038014043
:101620002800002004000020000000207A00002094
:1016300002000020050000202021020C01D0102112
:101640001046020A01D010460839020901D010469E
:10165000091F820801D01046891E420801D0881E49
:101660007047081A70470000002805DBC206D20E3A
:1016700001219140014A11607047000000E100E043
:1016800010B5002819DB1A4A03231B02D21883085D
:101690009B00D2588307DC0EFF23A3409A438B079D
:1016A0001B0E8407E40EA3401A43114B03242402AB
:1016B0001B198408A4001A5118E00E4A03071B0FD7
:1016C000083B9B089B00D2588307DC0EFF23A340F6
:1016D0009A438B071B0E8407E40EA3401A43054B65
:1016E0000407240F083CA408A4001A5110BD0000F0
:1016F00000E100E01CED00E002E008C8121F08C194
:10170000002AFAD170477047002001E001C1121F82
:10171000002AFBD1704730380A2801D201207047D7
:10172000002070470349088000BF0249098800294A
:10173000FBD170470600002010B5474880690121A1
:101740008904084344498861444845498862012026
:10175000C86208460068912108434149086008466C
:10176000C068012108433E49C8601620FFF77CFF8E
:1017700005211620FFF784FF3748406901218904BD
:101780000843354948613748006801210843354915
:10179000086031484069090308432F4948613248CD
:1017A00000680A21084330490860084680680F2114
:1017B00008432D4988600846006A112108432A49D8
:1017C00008622548406901214904084322494861CB
:1017D0000920C0060068042108430921C9060860E1
:1017E0001D48C0690121490508431B49C8611F48BC
:1017F00000690521090708431C490861084640683B
:101800000321C9028843194948600846006801213C
:101810000843164908601348006805214903084336
:10182000104908600C4880690121890308430A496E
:1018300088610F480F49C8600846006825210843A1
:101840000C4908601B20FFF70FFF02211B20FFF748
:1018500017FF62B610BD0000001002403F1F0000DD
:1018600000480140000400480014004800540040B3
:101870004103000000380140FFF75EFFFFF73CFD29
:10188000FFF7EAFC00210846FFF71AFD01219FA09F
:10189000FFF7A5FD39E1A148007800280AD0FFF73D
:1018A000FFFB01209E49087000209E4908709B495B
:1018B000087008E09C480078002804D09948007817
:1018C000401C984908709948007800287ED09448B8
:1018D000007800287BD002210020FFF7F1FC0021D6
:1018E00093A0FFF77CFD954880780A2803DA002151
:1018F00093A0FFF774FD914988780021FFF742FD1E
:1019000000218DA0FFF76BFD8C4800780A2803DAD0
:1019100000218CA0FFF763FD884908780021FFF7BC
:1019200031FD86488078C01C8449887008468078DC
:10193000172803DD084680781838887003210020B6
:10194000FFF7BEFC002180A0FFF749FD7B488078AF
:101950000A2803DA00217AA0FFF741FD7749887849
:101960000021FFF70FFD002173A0FFF738FD73483A
:1019700000780A2803DA002172A0FFF730FD6F49D2
:1019800008780021FFF7FEFC04210020FFF798FCF7
:10199000002170A0FFF723FD684948686F49FEF7F2
:1019A000C5FB04460021FFF7EDFC0021B020FFF746
:1019B00023FC624948686A49FEF7B8FB0546642182
:1019C000FEF7B4FB0C460021204601E09AE083E0DC
:1019D000FFF7D8FC00212720FFF70EFC5749486885
:1019E0005F49FEF7A3FB0C4600212046FFF7CAFC27
:1019F0005248007A002804D100215AA0FFF7EFFCDA
:101A000003E0002158A0FFF7EAFC05210020FFF7C2
:101A100057FC002155A0FFF7E2FC4849C8684F4930
:101A2000FEF784FB04460021FFF7ACFC0021B02048
:101A3000FFF7E2FB4149C8684949FEF777FB0546D5
:101A40006421FEF773FB0C4600212046FFF79AFC49
:101A500000212720FFF7D0FB3849C8684049FEF72E
:101A600065FB0C4600212046FFF78CFC3348007CC8
:101A7000002804D100213FA0FFF7B1FC03E00021C2
:101A80003DA0FFF7ACFC06210020FFF719FC002168
:101A90003AA0FFF7A4FC2949488A0021FFF772FC0D
:101AA000002138A0FFF79BFC07210020FFF708FC6E
:101AB000002137A0FFF793FC2049888A0021FFF717
:101AC00061FC0021B020FFF797FB002132A0FFF757
:101AD00086FC0020124908701248007805280EDDA7
:101AE00004210846FFF7CEFB05210020FFF7E8FBA5
:101AF00000212AA0FFF773FC00200A49087000208B
:101B00000A490870002008490870C4E62053544D63
:101B10003332463034322B4750532000020000202D
:101B200003000020010000200E0000200D00002016
:101B300054696D6520474D543A00000010000020A4
:101B4000200000003000000054696D65204D534BAB
:101B50003A0000004C61742000000000809698005C
:101B6000A08601004E200000532000004C6F6E2024
:101B700000000000452000005720000053706565FC
:101B8000642000006B6D2E2F682E202000000000C6
:101B9000436F757273652000202000004E6F207324
:101BA00069676E616C000000B8366100DB0F494068
:101BB000000000000000002F0000000700070014D4
:101BC0007F147F14242A7F2A12C4C810264636495F
:101BD0005522500005030000001C22410000412254
:101BE0001C0014083E081408083E08080000503085
:101BF0000010101010100060600000201008040297
:101C00003E5149453E00427F4000426151494621D4
:101C100041454B311814127F1027454545393C4A40
:101C20004949300171090503364949493606494990
:101C3000291E0036360000005636000008142241E6
:101C4000001414141414004122140802015109064E
:101C5000324959513E7E1111117E7F494949363E24
:101C6000414141227F4141221C7F494949417F092D
:101C70000909013E4149497A7F0808087F00417FF0
:101C800041002040413F017F081422417F404040F5
:101C9000407F020C027F7F0408107F3E4141413E9D
:101CA0007F090909063E4151215E7F0919294646EF
:101CB0004949493101017F01013F4040403F1F2018
:101CC00040201F3F4038403F6314081463070870EA
:101CD00008076151494543007F414100552A552A73
:101CE000550041417F000402010204404040404051
:101CF000000102040020545454787F48444438388A
:101D000044444420384444487F3854545418087E8E
:101D10000901020C5252523E7F0804047800447DAF
:101D200040002040443D007F1028440000417F4097
:101D3000007C041804787C0804047838444444384F
:101D40007C14141408081414187C7C080404084833
:101D500054545420043F4440203C4040207C1C20EC
:101D600040201C3C4030403C44281028440C50503B
:101D7000503C4464544C44000836410000007F004D
:101D800000004136080004020408040000000000BE
:101D90000000000000000000000000000000000043
:101DA0000000000000000000000000000000000033
:101DB0000000000000000000000000000000000023
:101DC0000000000000000000000000000000000013
:101DD0000000000000000000000000000000000003
:101DE00000000000000000000000000000000000F3
:101DF00000000000000000000000000000000000E3
:101E000000000000000000000000000000000000D2
:101E100000000000000000000000000000000000C2
:101E200000000000000000000000000000000000B2
:101E300000000000000000000000000000000000A2
:101E40000000000000000000000000000000000092
:101E5000360000000000000000000000000000004C
:101E600000003E4949492200000000000000000037
:101E7000000000000000000000000044457C4544D4
:101E80000609090600000000000000417F41000033
:101E9000447D400000000000000000000000000041
:101EA0000000000000000000000000000000000032
:101EB000000038544428000000000000000000002A
:101EC00000000000000000000000004A487A404086
:101ED0007E1111117E7F494949317F494949367F39
:101EE00001010103603E21217F7F4949494163147B
:101EF0007F146322494949367F1008047F7F100907
:101F0000047F7F081422417C0201017F7F020C02C2
:101F10007F7F0808087F3E4141413E7F0101017FEC
:101F20007F090909063E4141412201017F01010764
:101F30004848483F1C227F221C63140814633F203A
:101F4000203F60070808087F7F407F407F3F203F99
:101F5000207F017F4848307F4848307F7F4848488D
:101F600030224949493E7F083E413E462919097FB2
:101F7000205454547878545454207C545454287C1D
:101F800004040400603824386038545454186C1029
:101F90007C106C28445454283C4040207C3C4042F7
:101FA000207C7C10102844601008047C7C081008F9
:101FB0007C7C1010107C38444444387C0404047C3D
:101FC0007C14141408384444442004047C04040C95
:101FD0005050503C18247C241844281028443C209D
:101FE000203C600C1010107C7C407C407C3C203CF1
:101FF000207C047C4848307C4830007C7C48484841
:102000003028445454387C10384438582424247CD4
:10201000DDDDDDDDDCBBBBDDDDDDDDDDDDDDDDDD35
:102020009888888888888888777777777788888875
:10203000855555566666666666666666666888880D
:102040008333333222222222222222222228888D06
:10205000702000080000002010000000F8160008A2
:102060008020000810000020C004000008170008AD
:10207000000600000000000000000000000000005A
:04000005080000D51A
:00000001FF
